:1000000068EF02F0EA6A070EE96EEF500DE0060EA7
:10001000016E006A002EFED7012EFBD77B0E006E0C
:10002000002EFED7EF2EF3D71200016A026A006A93
:10003000036A0A5002E1095018E0100E0B6ED890C6
:1000400007360836003603360A50035C02E10950D1
:10005000005C07E30950005ED8A003060A50035E67
:10006000D880013602360B2EEAD79DEF02F08E0EB5
:10007000006E0AC001F009C002F0036A015209E1F2
:1000800002C001F0026A080E005E015202E1006A3D
:1000900008D0D89001BE04D0023601360006F9D748
:1000A000019EA6EF02F00950D8B4A5D0156E0D50F0
:1000B000D8B4A1D0155E05E37F0E1526D8B09BD02D
:1000C00006D0810E155ED8A096D0D8B494D015C0B5
:1000D00000F0016A026A036A146A0AC013F0138E00
:1000E0000BC012F00CC011F0190E156E1050115EFD
:1000F0000DE2010E125E0AE2135E08E2145E06E2F1
:10010000142A132A122A1050112628D00F50125EDA
:1001100012E2010E135E0FE2145E0DE2142A132A9E
:100120000F5012261050112619E3122A17E1132A34
:1001300015E1142A13D00E508009135E0EE2010E51
:10014000145E0BE2142A0E50800913260F5012265B
:10015000E9E3132AE7E1142AE5D70380152E01D03D
:100160000BD0D8901136123613361436D890033689
:10017000023601361636BAD716A006D0D89001320C
:1001800002320332163202D0000635E016BE1ED00F
:10019000D89011361236133614361050115E07E21D
:1001A000010E125E04E2135E02E2145E1AE30F50C7
:1001B000125E05E2010E135E02E2145E12E30E50BF
:1001C0008009135E03E2010E145E0BE3032A09E1CA
:1001D000022A07E1012A05E1002A0DE0013202327C
:1001E00003320AC015F00E50151A15AE02D0018E5A
:1001F00006D0019E04D0006A016A026A036AB6EF63
:1002000002F0800ED8B2101A156A166A0CC014F0EB
:100210001050141A0B50D8B4DCD0136E006E0F506F
:10022000D8B4E0D0135ED8B481D03DE310C019F04B
:10023000198E11C018F012C017F0166AD890193232
:10024000183217321632132EF8D714AE03D0158099
:10025000DDD0159013901588EA6A0E0EE96EE9D08C
:10026000159814BE0AD013A013D0193218321732C1
:100270001632002AD8B4C5D00BD019BE0CD0D890F5
:1002800016361736183619360006D8B4BAD0F5D750
:10029000158C6BD0159C0CC014F00CAE02D0198ECE
:1002A000A9D0199EA7D00FC013F00FC000F00B50BB
:1002B000135E0CC019F0198E0DC018F00EC017F0A7
:1002C000166AD8901932183217321632132EF8D710
:1002D00014AE03D015829AD015921390158AEA6A4B
:1002E000120EE96EA6D0159A14BE0AD013A013D030
:1002F0001932183217321632002AD8B482D00BD0F5
:1003000019BE0CD0D8901636173618361936000696
:10031000D8B477D0F5D7158E28D0159E10C014F01C
:1003200010AE02D0198E66D0199E64D010C019F09C
:10033000198E11C018F012C017F014AE04D0199E17
:10034000158464D01594166A1390EA6A0E0EE96E4D
:1003500070D014BE1CD00CC014F013A006D01932FB
:10036000183217321632002A4CE016AE0BD0172A7C
:1003700009E1182A07E1192A05E119321832173262
:10038000002A3FE015BC86D715BEC7D71CD0800E0B
:10039000191A19AE04D03AD010C014F00AD00CC00B
:1003A00014F0195206E1185204E1175202E1006AF2
:1003B00021D019BE08D0D8901636173618361936FF
:1003C000002EF7D71ED014AE02D0198E13D0199E6E
:1003D00011D00FC000F010C019F011C018F012C0F9
:1003E00017F008D00BC000F00CC019F00DC018F0C9
:1003F0000EC017F019C001F018C002F017C003F0CA
:1004000034D0006A016A026A036A2FD0166A171E86
:10041000181E191E161E162A05E1172A03E1182AAE
:1004200001E1192A15B015D715B256D715B48AD7D8
:10043000B3D7EF50172605E3182A03E1192AD8B4D9
:100440001380ED52EF50182603E3192AD8B4138015
:10045000ED52EF50EFBE01D0800A1926D8B01380BC
:1004600015B8FED615BA3FD774D7CDEF02F08E0E71
:10047000006E0750005E08C002F009C001F0028E55
:10048000005209E0D890025202E1015204E0023227
:100490000132002EF7D708AE05D0011E021E012A38
:1004A000D8B4022AD6EF02F00850016A075C03E2D2
:1004B00007C000F00CD0006A080E096E073600363F
:1004C0000850005CD8B0006E0136092EF7D7120034
:1004D000F86AD09EEA6AE96AC180C182C184C19685
:1004E000070EB46EC19CC28CC28EC19EC280C190E8
:1004F000C182C184C186000E016EC250C70B0110BB
:10050000C26E010E076E7EDD93988A8895988C885E
:10051000C284C2B4FED7C3CF04F0C4CF05F0520EDC
:10052000006E002EFED700D0000005C008F004C009
:1005300007F00A6A7D0E096E78D502C008F001C086
:1005400007F002C00AF001C009F091D503C00CF019
:1005500002C00BF001C00AF000C009F0660E106E78
:100560000F6E060E0E6E7F0E0D6E9DD500C007F04D
:1005700001C008F002C009F003C00AF0D89203C01D
:100580000EF002C00DF001C00CF000C00BF0126ABA
:10059000116A106A7F0E0F6E34D603C00AF002C0D3
:1005A00009F001C008F000C007F061D701C006F0F3
:1005B000320E076E27DD065018080AE294908B80F1
:1005C000320E076E1FDD94908B90320E076E1ADD8F
:1005D00006C007F00A0E086E67DF005208E195902A
:1005E0008C9095928C9295948C9495968C9606C04E
:1005F00007F00A0E086E58DF002C08D095908C800A
:1006000095928C9295948C9495968C9606C007F052
:100610000A0E086E49DF0050020808E195908C90A0
:1006200095928C8295948C9495968C9606C007F042
:100630000A0E086E39DF0050030808E195908C809F
:1006400095928C8295948C9495968C9606C007F022
:100650000A0E086E29DF0050040808E195908C907E
:1006600095928C9295948C8495968C9606C007F002
:100670000A0E086E19DF0050050808E195908C807D
:1006800095928C9295948C8495968C9606C007F0E2
:100690000A0E086E09DF0050060808E195908C905C
:1006A00095928C8295948C8495968C9606C007F0D2
:1006B0000A0E086EF9DE0050070808E195908C805C
:1006C00095928C8295948C8495968C9606C007F0B2
:1006D0000A0E086EE9DE0050080808E195908C903B
:1006E00095928C9295948C9495968C8606C007F082
:1006F0000A0E086ED9DE0050090808E195908C803A
:1007000095928C9295948C9495968C8606520BE0DB
:100710000650090808E393908A9093928A929394E2
:100720008A9493968A96065009080DE206520BE0C9
:100730000650130808E393908A8093928A929394C8
:100740008A9493968A96065013080DE206520BE09F
:1007500006501D0808E393908A9093928A8293949E
:100760008A9493968A9606501D080DE206520BE075
:100770000650270808E393908A8093928A82939484
:100780008A9493968A96065027080DE206520BE04B
:100790000650310808E393908A9093928A9293943A
:1007A0008A8493968A96065031080DE206520BE031
:1007B00006503B0808E393908A8093928A92939420
:1007C0008A8493968A9606503B080DE206520BE007
:1007D0000650450808E393908A9093928A829394F6
:1007E0008A8493968A96065045080DE206520BE0DD
:1007F00006504F0808E393908A8093928A829394DC
:100800008A8493968A9606504F080DE206520BE0B2
:100810000650590808E393908A9093928A92939491
:100820008A9493968A86065059080DE206520BE088
:100830000650630808E393908A8093928A92939477
:0A0840008A9493968A8664D603001A
:020000040030CA
:0E00000000270C0E000081000FC00FE00F4023
:00000001FF
;PIC18F458
;CRC=0CC0  CREATED="26-févr.-15 14:14"
